:1000000000400020F114000019150000191500002F
:1000100000000000000000000000000000000000E0
:1000200000000000000000000000000019150000A2
:10003000000000000000000019150000A9050000E4
:1000400019150000191500001915000019150000F8
:1000500019150000191500001915000019150000E8
:1000600019150000191500001915000019150000D8
:100070001915000019150000810100001915000074
:1000800019150000191500001915000019150000B8
:1000900019150000191500001915000010B5064CBF
:1000A0002378002B07D1054B002B02D0044800E039
:1000B00000BF0123237010BD70000020000000006D
:1000C000B8F20100044B10B5002B03D003490448DB
:1000D00000E000BF10BDC04600000000740000201A
:1000E000B8F20100164B002B00D1144B9D46402264
:1000F00092029A1A924600218B460F461348144AE0
:10010000121A01F04BFA0F4B002B00D098470E4B00
:10011000002B00D098470020002104000D000D485E
:10012000002802D00C4800E000BF01F013FA2000C4
:10013000290000F0A1F801F0F7F9C046000008001E
:1001400000400020000000000000000070000020BF
:1001500068040020000000000000000070B5C5B277
:10016000064C8021200001F041F90128F9D1A9B203
:10017000024801F037F9002070BDC0460080004001
:1001800010B50121002000F073FD002804D0184BA9
:100190001B785BB2002B07D080214900002000F0C3
:1001A00067FD00281ED110BD002000F06DFD114B31
:1001B0001B88820208D49A000F495050EF2B0AD8AE
:1001C00001330C4A1380E7E79A00FF210906084330
:1001D00009495050F2E7064B01221A70054B0022E4
:1001E0001A80D9E74021054800F012FEDBE7C0463F
:1001F0008C00002050040020900000200080084067
:10020000F0B583B0174B1B785BB2002B28D0164E8D
:10021000002501CE02F00EFE9621C90502F026FC53
:10022000011C124802F0DEF9114902F0EDFA02F069
:10023000E1FD0700ACB200230093F033012200215E
:10024000200000F0AFFB3900F03189B2094A2000EC
:1002500000F082FB0135F02DDBD1024B00221A7039
:1002600003B0F0BD8C000020900000209A99194B3B
:100270000000C8421FF80000F0B5D6464F4646467B
:10028000C0B596B000F0B8FF002000F037FE0120A6
:1002900000F0DEFD00F060FF0128FBD109210130F4
:1002A00000F000FE012000F029FE00F0BDFF012853
:1002B000FBD1002000F030FE012000F011FE802074
:1002C000400000F033FE082000F06CFE01F0B6F8AC
:1002D000E0200121C00200F06FFE0121012000F0AA
:1002E0006BFE0121022000F067FE802001218001C9
:1002F00000F062FE704B714ADA60714B9846012340
:100300005B42C022520041468B50013AFF3A8B506B
:1003100000F01AF96B4E300000F0BEFC6A4800F0A5
:10032000BBFC13AC40232380012701239A46A7700E
:1003300000252572A77202239946637221003000BE
:1003400000F0B4FC4021300000F062FD0323637232
:100350005E4B238021005C4800F0A8FC2772A77048
:1003600027802100300000F0A1FCA5704B462380BF
:100370002100300000F09AFC0123A3705346237241
:10038000534B23802100504800F090FC8026F6015A
:100390002680A57021004C4800F088FC4D4C2000C0
:1003A00000F0AAFF0021200001F026F802A9FA239C
:1003B0009B02029360238B800027CD800D814D81AD
:1003C000C0239B008B81200000F0A8FF01212000AA
:1003D00000F0FAFF8020C00500F040FF00218020DF
:1003E000C00500F077FF06AC200000F052FF25802A
:1003F0004B466380A5800723E38025816581A58125
:10040000E58121008020C00500F031FF012180201E
:10041000C00500F049FF304801F042F92F4B196840
:100420002F4801F0C3F800F091F9002000F01EFB06
:100430002C4801F035F900F085FD082000F08CFD16
:10044000E02000F093FD012000F09AFD00F074FB25
:100450000DA800F0EBFB0D9580231B010F930DA859
:1004600000F082FB0AAC200000F0E9FB2770534645
:10047000A37267722100002000F086FB43461E60D5
:100480000121002000F0E2FB174801F009F9174BA9
:100490000093F023F0220021002000F0F3FAFA206C
:1004A000C00000F077F8074C4021200000F0C0FCAD
:1004B000FFF7A6FEF8E7C04600ED00E00005FA05EC
:1004C00000E100E000800840000008400118000042
:1004D00000A0FFFF008000401CF101000000002090
:1004E0002CF1010040F1010050F101001C2F00002F
:1004F00010B501F013F816230360FEE770B5161E61
:1005000007DD0C008D182078FFF728FE0134AC427F
:10051000F9D1300070BD01204042704780239B011B
:100520004B6000207047012070470020704770B575
:10053000161E07DD0C008D1800E000BF207001348E
:10054000AC42F9D1300070BD10B50E4B1868FA21DD
:10055000890001F0BBFF01380B4B984210D8000214
:10056000000A0138094A50600948036A1B021B0A45
:10057000C02109060B430362002393600733136015
:1005800010BDC04600000020FFFFFF0010E000E0AB
:1005900000ED00E0034B18601A001368002BFCD13B
:1005A0007047C04660040020044B1B68002B03D03A
:1005B000024A1368013B13607047C0466004002084
:1005C00070B5050080210901094800F031FC802444
:1005D000E4051021200000F077FE0128F9D0A9B22F
:1005E0008020C00500F06EFE0120FFF7D3FF70BD34
:1005F0000000084070B5050080210901094800F09D
:1006000007FC8024E4051021200000F05DFE012895
:10061000F9D0A9B28020C00500F054FE0120FFF7F8
:10062000B9FF70BD00000840F8B507000C0080213C
:1006300009010D4800F0ECFB002C14D03D00013CFA
:10064000A4B23F1901378024E4052E781021200040
:1006500000F03AFE0128F9D0B1B2200000F032FEDD
:100660000135BD42F1D1F8BD00000840F0B5C646E5
:1006700000B582B080460E0017001D002A20FFF74B
:100680009FFF01A800240470434643708470C77024
:100690000421FFF7C9FF2B20FFF792FF6B461C7068
:1006A0005E709C70DD7004216846FFF7BDFF2C2052
:1006B000FFF786FF02B004BC9046F0BD70B50500A0
:1006C00080210F4C0901200000F0B2FB0121200025
:1006D00000F0AEFB8024E4051021200000F0F4FDC2
:1006E0000128F9D0A9B28020C00500F0EBFD01205F
:1006F000FFF750FF0121024800F08AFB70BDC046A1
:100700000000084070B5050080210F4C0901200051
:1007100000F07EFB0121200000F08AFB8024E4052C
:100720001021200000F0D0FD0128F9D0A9B28020CE
:10073000C00500F0C7FD0120FFF72CFF0121024892
:1007400000F066FB70BDC0460000084070B5814CEB
:100750000121200000F05CFB80256D0129002000B4
:1007600000F066FB6420FFF715FF2900200000F071
:100770004FFB6420FFF70EFF0120FFF79FFFFA20D9
:100780004000FFF707FF0121200000F051FB11207E
:10079000FFF716FF6420FFF7FDFE1320FFF710FFA1
:1007A0003620FFF70DFF4020FFF724FF3A20FFF728
:1007B00007FF5520FFF71EFFB220FFF701FF0C20B7
:1007C000FFF718FF0C20FFF715FF0020FFF712FFBF
:1007D0003320FFF70FFF3320FFF70CFFB720FFF7A1
:1007E000EFFE3520FFF706FFBB20FFF7E9FE2B20C9
:1007F000FFF700FFC020FFF761FF7F20FFF782FFB8
:10080000C220FFF7DDFE0120FFF7F4FEFF20FFF717
:10081000F1FEC320FFF7D4FE1120FFF7EBFEC4204A
:10082000FFF7CEFE2020FFF7E5FEC620FFF7C8FE4B
:100830000F20FFF7DFFED020FFF7C2FEA420FFF756
:10084000D9FEA120FFF7D6FEE020FFF7B9FED020A9
:10085000FFF7D0FE0020FFF7CDFE0520FFF7CAFE10
:100860000E20FFF7C7FE1520FFF7C4FE0D20FFF78F
:10087000C1FE3720FFF7BEFE4320FFF7BBFE472037
:10088000FFF7B8FE0920FFF7B5FE1520FFF7B2FE0F
:100890001220FFF7AFFE1620FFF7ACFE1920FFF77E
:1008A000A9FEE120FFF78CFED020FFF7A3FE002079
:1008B000FFF7A0FE0520FFF79DFE0D20FFF79AFE33
:1008C0000C20FFF797FE0620FFF794FE2D20FFF780
:1008D00091FE4420FFF78EFE4020FFF78BFE0E2096
:1008E000FFF788FE1C20FFF785FE1820FFF782FE29
:1008F0001620FFF77FFE1920FFF77CFE2020FFF770
:100900005FFE2A20FFF75CFE0020FFF773FE002049
:10091000FFF770FE0020FFF76DFEEF20FFF76AFE85
:100920002B20FFF74DFE0020FFF764FE0020FFF7AD
:1009300061FE0020FFF75EFEEF20FFF75BFE012166
:10094000200000F065FA2920FFF7B8FE7820FFF7B5
:1009500021FE70BD00000840F0B583B004000D001A
:100960001600EF2801D8EF2901D903B0F0BD0C4FD4
:100970000121380000F05CFAE0B2E9B24B1CDBB2B6
:10098000421CD2B2FFF772FE01A8330A0370467010
:100990000221FFF749FE0121380000F039FAE4E7AF
:1009A00000000840F0B5C64600B582B007000C0054
:1009B00090461E0008AB1D88F02850D8F0294ED86C
:1009C0008318013BEF2B03DDF0231B1A9BB29846E3
:1009D000A319013BEF2B02DDF0231B1B9EB201216B
:1009E000214800F025FAF8B2E1B24B1E9B19DBB2A8
:1009F000421E4244D2B2FFF739FE802109011A4853
:100A000000F006FA002E26D02B0A0193FF231D408A
:100A10001BE01021200000F057FC0128F9D00199BB
:100A2000200000F04FFC1021200000F04DFC0128B8
:100A3000F9D02900200000F045FC013FBFB2002F93
:100A4000E7D1013EB6B2002E05D04746002FF8D0C0
:100A50008024E405DDE70121034800F0D9F902B064
:100A600004BC9046F0BDC0460000084000B583B00D
:100A70000090F023F02200210020FFF793FF03B045
:100A800000BD0000F8B5CE46474680B507000C0013
:100A900016001D00F02809D8F02907D88318013B5B
:100AA000EF2B03DC4B19013BEF2B03DD0CBC904615
:100AB0009946F8BD01211F4800F0BAF9F8B2E1B239
:100AC0006B1ECB18DBB2721E8218D2B2FFF7CEFDBE
:100AD00080210901174800F09BF97543012D24D0AE
:100AE000089B9846013D00278024E405FF23994692
:100AF00043461E881021200000F0E6FB0128F9D0B3
:100B0000310A200000F0DEFB1021200000F0DCFBA9
:100B10000128F9D049463140200000F0D3FB0137CD
:100B200002239C46E044BD42E2D10121014800F08D
:100B30006FF9BBE700000840094B8022D2001A6120
:100B40001A6908490A401A6100221A605A602A216B
:100B50009960DA601A615A619A610232DA63704709
:100B600000800640FFFBFFFF064A036813604368EE
:100B700081680B4301690B4341690B431361C368EF
:100B8000936070470080064030B50B78012B2FD062
:100B9000254C2368050009350122AA4093432360B0
:100BA000214C636845000322AA4093431A004B6816
:100BB000AB40134363600B7A012B21D01A4CE368DE
:100BC000012282409343E3608B7A012B1ED0164CA6
:100BD000636901228240934363614B7A012B1BD0EE
:100BE00011494B6908300122824093434B6130BD6B
:100BF0000D4A146805000935AB4023431360CFE765
:100C00002200E46883402343D360DDE7064A546949
:100C1000834023435361E0E7034A5169083083402E
:100C20000B435361E3E7C0460080064000230360A6
:100C3000436083602A22C2600361436170470023DE
:100C4000037043600372437283727047012906D0B8
:100C500006490B680122824093430B607047034AA8
:100C60001168012383400B431360F7E700800640BF
:100C7000044B9B69814008001840411E8841C0B266
:100C80007047C046008006408000024B9C4660448E
:100C900040687047188006400023C36003614360CA
:100CA0000360836043618361C3617047F0B5DE46D2
:100CB00057464E464546E0B58BB04368029383687D
:100CC0000393C368049303699B464369059383694F
:100CD0000693C36907930C88002C68D0494B98464B
:100CE00003239C46023B9A4600235246019202008F
:100CF0005846089093460BE0019A520001926246D2
:100D000092009446424652009046013364084BD00C
:100D100001222242F0D0019AD543029E2E408A78C9
:100D20009A40324302926246D2439146039A484621
:100D3000024092465A000E7A099296405246324339
:100D40000392049E2E408A7A9A4032430492464689
:100D5000F2431E0010360F793800984082460898FA
:100D6000104057463843CF78B740384308908F79C2
:100D70009F40BA46059F17403A0057463A434F797D
:100D8000B7403E0016430596069A4E4632404E7ACC
:100D90000998864016430696079A2A401500CA7994
:100DA0009A402A430792A7E75846089B9B46164B52
:100DB00098421DD0029B4360012676423500039F76
:100DC0002F408760049A3240C2605B463340036123
:100DD000059A32404261069B2B408361079B33405A
:100DE000C3610BB03CBC90469946A246AB46F0BDF1
:100DF000C023029A9A43044B5A60C1267642034D9F
:100E0000DDE7C0460100010000000840FF0FFFFFC2
:100E100010B50468054BC21853425A415342BF22D1
:100E20009343013B23401943016010BD0000F8BF0C
:100E300010B50468054BC3185A4253415A42C023A7
:100E4000134019438C43046010BDC0460000F8BF36
:100E50000A4A936803218B439360012802D0022839
:100E600006D07047054A936801210B439360F8E769
:100E7000024A936803210B439360F2E700000240AB
:100E8000064BDB6B002804D1054A1340034AD363A9
:100E900070478022D2031343F8E7C04600000640A3
:100EA000FFFFBFFF10B50C4BDA680324A2431043C9
:100EB000D8605A68094802400902114359605B68CA
:100EC0005B0707D5044A536808211800084350609F
:100ED0008B43536010BDC04600000240FFF0FFFF8F
:100EE000054BDB68002804D104229343024AD360F7
:100EF000704704221343F9E700000240054B5B688A
:100F0000012804D004229343024A5360704704220C
:100F10001343F9E700000240034AD368F0218B43F2
:100F200000011843D060704700000240034AD368B4
:100F300003490B401843D0607047C0460000024090
:100F4000FFFCFFFF024A536902490B40536170479F
:100F50000000024003EFFFFF034A53690C218B435B
:100F6000184350617047C04600000240034A53696D
:100F7000F0218B43184350617047C0460000024087
:100F8000064B5B69002804D1054A1340034A5361AC
:100F90007047802252011343F8E7C0460000024028
:100FA000FFEFFFFF034A13690C218B4318431061C5
:100FB0007047C04600000240002904D1044AD369AA
:100FC0008343D3617047024AD3691843D061F9E77C
:100FD00000000240F8B50600504BDA68DB680125D6
:100FE0001D406B425D416D424D4B1D409C4665442A
:100FF0004A4A5368D2682F00520703D51F053F0F96
:1010000001376F43454BDB689B059B0F012B3FD09E
:10101000002B04D0022B4AD0424B336001E0424BFC
:1010200033603E4B9B691B091A0744D507221340C6
:101030000133012199403C4801F048FAF060374BF8
:101040009A69130739D507231340013301219940C9
:10105000354801F03BFA3061304B1C69A407E417B6
:10106000324B1C402F4B9C4664442C4B1B69DB07C6
:1010700000D56408294B1A695A6903231340012BD0
:1010800038D0002B1BD03800022B19D0264817E08F
:10109000224BDA683B00120607D5204BDB685B0663
:1010A0005B0F01333A00DA4013003360B9E7802365
:1010B0001B023360B5E71C48C0E71B48CBE728009C
:1010C000164B5B691B0A1A0706D50722134001332A
:1010D0000121994001F0FAF97060104B5B691B0720
:1010E0009B0F012B09D0002B06D03C00022B04D013
:1010F0000D4C02E02000E3E72C00084B5B691B0964
:101100001A0708D507221340013301219940200016
:1011100001F0DCF90400B460F8BDC04600000240F4
:1011200000093D00409C000000127A00C0E3FFFF70
:10113000E0230340202B07D0054BDB6B1F22104020
:10114000C340012018407047024B1B68F6E7C046B9
:10115000000006400000024010B582B00023019359
:10116000094C2220FFF7E4FF019B01330193019B0F
:10117000A34201D80028F4D02220FFF7D9FF431E54
:101180009841C0B202B010BDFF05000010B582B09A
:1011900000230193094C1720FFF7CAFF019B01337D
:1011A0000193019BA34201D80028F4D01720FFF738
:1011B000BFFF431E9841C0B202B010BDFF05000042
:1011C00010B50120FFF75CFEFFF7E0FF0020FFF7FE
:1011D000ADFE084BDA680022DA6059685A609968F7
:1011E0009A6059695A6199699A6130321A61203A54
:1011F000DA6110BD0000024010B5FFF7E1FF084AB8
:10120000D16980235B010B43D361064BD96B8120ED
:10121000C0030143D963DA6B0240DA6310BDC046F4
:10122000000002400000064010B582B00023019388
:10123000094C2120FFF77CFF019B01330193019BA7
:10124000A34201D80028F4D02120FFF771FF431EEC
:101250009841C0B202B010BDFF050000002303603A
:1012600043600361436143620333036270474B8809
:1012700003610B881B020A899B184A899B188A897B
:101280009B18CA889B180360CB898A889B18436087
:101290007047002383800722C280438103818381BA
:1012A000053A428003807047002904D14368044A0C
:1012B0001340436070474368022213434360F9E7D9
:1012C000FDFF000081607047C0680840411E8841F2
:1012D000C0B27047074BDB6A8022D205904202D031
:1012E000044AD3627047FF2293438022520413437F
:1012F0000B43F5E70000024000230363C362436031
:10130000902282610362436283628E3A4263836306
:101310008364C0239B00036370470000F0B5CE4692
:10132000474680B587B005000E0001A8FFF752FEC2
:10133000019C214B9B6A214A954234D0204A954218
:1013400035D0336898469908200001F0BFF883092A
:1013500099463F270740A0009901C91901F0B6F846
:101360004346C01AC001414601F0B0F800230228EC
:1013700013D84B466B62AF62EA6AB388F1880B43BD
:1013800031890B4371890B431343EB622B6B0D4A7D
:101390001A40B38913432B630123180007B00CBC18
:1013A00090469946F0BD07221340DC40C9E75B0533
:1013B0005B0FDC40C5E7C0460000024000800040F3
:1013C000000001407F00FFFF002904D1036B044AA5
:1013D000134003637047036B012213430363F9E770
:1013E000FEFF0000C905C90D016070478069084013
:1013F000411E8841C0B270470C4B9B6A0C4A904218
:1014000005D00C4A904209D0084A93627047FF22E7
:1014100093438022520413430B43F5E7064A1340DB
:1014200080229204134309020B43EDE700000240BF
:101430000080004000000140FF00FFFF1C4BDA6805
:10144000DA68012313405A4253415B42194A134060
:1014500094466344164AD268520705D5144A526826
:101460001205120F01325343114AD2689205920FAE
:10147000012A0BD0002A05D0022A13D00E4B0F4AA6
:101480001A6002E00C4B0E4A1A607047084AD26894
:101490001209110703D507210A400132D340064A39
:1014A0001360F2E7044B802212021A60EDE7C04697
:1014B0000000024000093D0000000020409C0000A8
:1014C00000127A0010B5084B30221A61074ADA611F
:1014D000DA680022DA6059685A6099689A60596936
:1014E0005A61FFF7ABFF10BD000002401010000072
:1014F0000649074A074B9B1A03DD043BC858D050E6
:10150000FBDCFFF7DFFFFEF7EDFD0000C4F201009A
:101510000000002070000020FEE7C046014B186864
:101520007047C04604000020084B10B50400002B93
:1015300002D0002100E000BF054B1868836A002B31
:1015400000D098472000FEF7D3FFC04600000000FF
:1015500060F1010070B500260C4D0D4C641BA41009
:10156000A64209D1002601F0CDFC0A4D0A4C641BAD
:10157000A410A64205D170BDB300EB5898470136C0
:10158000EEE7B300EB5898470136F2E76800002019
:1015900068000020680000206C0000200300121882
:1015A000934200D1704719700133F9E70FB40B4B28
:1015B00013B51C68002C05D0A369002B02D12000B4
:1015C00000F03CFA05AB049AA1682000019300F0FA
:1015D00005FC16BC08BC04B01847C0460400002037
:1015E00070B505000E00002804D08369002B01D1DE
:1015F00000F024FAAB69AC68002B02D1280000F09F
:101600001DFA244B9C420FD16C68A3891B0702D59D
:101610002369002B1FD12100280000F0A1F8002829
:1016200019D00120404270BD1B4B9C4201D1AC68D7
:10163000EBE71A4B9C42E8D1EC68E6E70136A36081
:10164000002B04DAA2699A4216DC0A2914D0236816
:101650005A1C22601970A3683178013B0029EDD132
:10166000A360002B0FDA22000A31280000F022F8D4
:10167000431CD6D00A20D6E72200280000F01AF832
:10168000431CE8D1CDE70A2023685A1C2260187059
:10169000C9E7C04684F10100A4F1010064F1010032
:1016A00010B5034B01001868FFF79AFF10BDC04644
:1016B00004000020F8B505000E001400002804D036
:1016C0008369002B01D100F0B9F9224B9C422DD146
:1016D0006C68A369A360A3891B0731D52369002B1C
:1016E0002ED023682269F7B2981A6369F6B2834252
:1016F00005DC2100280000F033F9002826D1A3687A
:101700000130013BA36023685A1C22601F7063698B
:10171000834204D0A389DB071AD50A2E18D12100F1
:10172000280000F01DF9002812D00FE00A4B9C425F
:1017300001D1AC68CDE7094B9C42CAD1EC68C8E73F
:101740002100280000F00CF80028CAD001267642BB
:101750003000F8BD84F10100A4F1010064F1010042
:10176000364B70B51D6806000C00002D05D0AB6926
:10177000002B02D1280000F061F9314B9C420FD1BF
:101780006C680C23E25E93B219072DD4D90611D4EC
:1017900009230120336037331343A381404270BDD6
:1017A000284B9C4201D1AC68EBE7274B9C42E8D127
:1017B000EC68E6E75B0713D5616B002908D02300CE
:1017C0004433994202D0300000F038FA00236363BA
:1017D0002422A3899343A3810023636023692360A8
:1017E0000823A2891343A3812369002B0BD1A021D5
:1017F0008022A389890092000B40934203D02100EC
:10180000300000F0D7F90123A289134011D0002342
:10181000A36063695B42A361002023698342BED158
:101820000C23E25E1306BAD540231343A38101388B
:10183000B5E7920700D46369A360EDE704000020D8
:1018400084F10100A4F1010064F10100F7B58A8977
:1018500005000C00130760D44B68002B04DC0B6CF4
:10186000002B01DC0020FEBDE76A002FFAD0002328
:101870002E682B6080235B01216A1A4034D0606D92
:10188000A3895B0706D56368C01A636B002B01D080
:10189000236CC01A0200216A00232800E76AB847B7
:1018A000A189431C06D12B681D2B30D82B4ADA4066
:1018B000D3072CD50023636023692360CB0405D5AF
:1018C000431C02D12B68002B00D16065616B2E6038
:1018D0000029C7D023004433994202D0280000F0E9
:1018E000ADF900206063BEE701232800B847431C20
:1018F000C6D12B68002BC3D01D2B01D0162B01D1D4
:101900002E60AFE74023A2891343A381ABE74023B6
:101910000B430120A3814042A5E70F69002FA1D00E
:101920000B680F60DB1B01930023920700D14B690A
:10193000A360019B002B00DC94E7019B3A00216A25
:101940002800A66AB047002803DC4023A28913437D
:10195000DFE7019B3F181B1A0193EAE701004020D3
:101960000B6970B505000C00002B01D1002070BD83
:10197000002804D08369002B01D100F05FF80B4BE5
:101980009C4209D16C680C22A35E002BEED0210092
:101990002800FFF75BFFEAE7054B9C4201D1AC68EA
:1019A000F1E7044B9C42EED1EC68ECE784F10100D6
:1019B000A4F1010064F10100002310B504000360EC
:1019C0004360836081814366C281036143618361B7
:1019D000190008225C30FFF7E1FD054B24626362C9
:1019E000044BA362044BE362044B236310BDC04667
:1019F000192300004123000079230000A5230000E3
:101A000010B5024900F08CF810BDC0466119000005
:101A100070B568254A1E55430E002900743100F048
:101A200057F9041E08D000212A00016046600C30DE
:101A3000A0606832FFF7B2FD200070BD836913B566
:101A40000400002B28D18364C3640365134B144A3C
:101A50001B6882620193984201D1012383612000B7
:101A600000F020F86060200000F01CF8A06020006A
:101A700000F018F80022E06004216068FFF79CFF86
:101A800001220921A068FFF797FF02221221E068D6
:101A9000FFF792FF0123A36113BDC04660F101006F
:101AA000011A0000F8B51C4B07001E68B369002B33
:101AB00002D13000FFF7C2FF4836B4687368013BBB
:101AC00004D53368002B07D03668F6E70C22A55EF4
:101AD000002D0DD06834F2E704213800FFF798FF9D
:101AE00030600028F0D10C2304003B602000F8BDDA
:101AF00020000A4B656625606560A560E36025618E
:101B00006561A561082229005C30FFF747FD656328
:101B1000A563A564E564E9E760F101000100FFFF4A
:101B2000F7B504000700002601914834002C01D1CC
:101B30003000FEBD6368A5680093009B013B0093E5
:101B400001D52468F2E7AB89012B08D90E22AB5EE0
:101B5000013304D029003800019B984706436835BB
:101B6000EBE7000070B50E001D000E23C95E96B0B5
:101B70001400002907DA00232B60B3891B0611D457
:101B80008023DB000FE06A4600F038FC0028F2DB1F
:101B9000F022019B12021340054A9B185A425341FE
:101BA0002B60EDE740230020236016B070BDC046D7
:101BB00000E0FFFFF7B502268B8905000C003342D9
:101BC00006D0230047332360236101236361F7BDFF
:101BD00001AB6A46FFF7C6FF00990700280000F036
:101BE00077F8002808D10C22A35E9A05EFD40322CF
:101BF00093431E43A681E4E70F4BAB628023A28987
:101C000020601343A381009B20616361019B002B33
:101C10000DD00E23E15E280000F002FC002806D063
:101C20000322A38993431A0001231343A381A089AC
:101C30003843A081CBE7C046011A000070B505000B
:101C4000002910D00C1F2368002B00DAE4182800AC
:101C500000F017FC1D4A1368002B05D16360146067
:101C6000280000F00FFC70BDA34209D9216860185C
:101C70008342F3D118685B6841182160EEE71300D6
:101C80005A68002A01D0A242F9D919685818A0420E
:101C90000BD120680918581819608242E0D11068E9
:101CA0005268411819605A60DAE7A04202D90C2341
:101CB0002B60D5E721686018824203D11068526812
:101CC0004118216062605C60CAE7C046540400208D
:101CD000032370B5CD1C9D43083506000C2D1ED284
:101CE0000C25A9421DD8300000F0CBFB254A146812
:101CF0002100002919D1244C2368002B03D1300086
:101D000000F0F8FA20602900300000F0F3FA431CDC
:101D10002BD10C233000336000F0B4FB03E0002D26
:101D2000DFDA0C233360002070BD0B685B1B19D415
:101D30000B2B03D90B60CC18256003E04B688C4259
:101D40000DD11360300000F09DFB200007220B3006
:101D5000231D9043C31AE7D05A42E250E4E7636080
:101D60000C00EFE70C004968C3E70323C41C9C4345
:101D7000A042E1D0211A300000F0BCFA431CDBD1B4
:101D8000C7E7C0465404002058040020936810B5EB
:101D9000013B9360002B04DA9469A34207DB0A2914
:101DA00005D01368581C10601970080010BDFFF7AB
:101DB00081FC0100F9E7F8B506000F001400D51802
:101DC000AC4201D1002007E021783A003000FFF753
:101DD000DDFF0134431CF3D1F8BD0000F0B59FB026
:101DE00002900F0016000593002805D08369049324
:101DF000002B01D1FFF722FE7B4B9F425BD1029B60
:101E00005F68BB891B0762D53B69002B5FD000234D
:101E100006AC6361203363761033A37635002B78EC
:101E2000002B01D0252B5CD1AB1B04930CD03200CE
:101E300039000298FFF7BFFF431C00D1C4E062697C
:101E4000049B9446634463612B78002B00D1BBE074
:101E5000012200235242626002A9543252186E1CC1
:101E60002360E360A3601370A365317805225F48A7
:101E700000F0FCFA751C002835D12268D30604D581
:101E8000532302A95B1820211970130704D553238B
:101E900002A95B182B21197033782A2B2CD035001E
:101EA00000210A20E3682A786E1C303A092A64D996
:101EB00000292ED026E04E4B9F4202D1029B9F6804
:101EC0009FE74C4B9F429CD1029BDF6899E739000A
:101ED0000298FFF745FC002899D0012040421FB02E
:101EE000F0BD01359BE7414B2268C01A01238340B6
:101EF000134323602E00B8E7059B191D1B6805914D
:101F0000002B01DB099304E05B42E36002231343EF
:101F100023602B782E2B0AD16B782A2B35D1059B89
:101F200002351A1D1B680592002B2BDB0793324EDE
:101F300029780322300000F099FA002806D04023C7
:101F4000801B8340226801351343236029780622D1
:101F50002A486E1C217600F089FA00283AD0284BD6
:101F6000002B25D10722059B0733934308330593A4
:101F70006369039A9B18636150E7434301219B18EF
:101F8000350090E701235B42D0E700230A201A00C6
:101F90000135636029786E1C3039092903D9002B7B
:101FA000C5D00792C3E74243012352183500F1E739
:101FB00005AB00933A00134B2100029800E000BFEC
:101FC0000390039B0133D3D1BB895B0600D584E723
:101FD0000B9884E705AB00933A000A4B2100029866
:101FE00000F080F8ECE7C04684F10100C4F1010084
:101FF000A4F1010064F10100CAF10100CEF1010079
:1020000000000000B71D0000F7B5150001938A68B5
:102010000B6900900C00934200DA130022002B6041
:1020200043321278002A01D001332B6023689B06CB
:1020300002D52B6802332B60062723681F4027D068
:10204000230043331B785A1E93412268920630D4F2
:102050002200019943320098089EB047431C25D0C6
:10206000062320682A68E16803400025042B03D179
:102070008D1AEB43DB171D40A3682269934201DDF3
:102080009B1AED180027BD4220D1002010E0013737
:10209000E3682A689B1ABB42D2DD22000123193271
:1020A00001990098089EB047431CF0D1012040429E
:1020B000FEBD3020E1184331087021005A1C453123
:1020C0000978A218433202331170C1E722000123BC
:1020D0001A3201990098089EB047431CE6D0013798
:1020E000D1E70000F0B589B004920A0043320593AD
:1020F000039002920A7E0C000E9B6E2A00D186E0AD
:102100001FD8632A33D008D8002A00D18CE0582A7F
:102110004DD0250042352A7030E0642A01D0692A6A
:10212000F7D1196825680A1D280629D508681A609C
:10213000002803DA2D23029A404213706B4E0A27BF
:102140004FE0732A74D008D86F2A1FD0702AE0D1CC
:10215000202209680A43226003E0752A16D0782AF3
:10216000D7D12200782145321170614E22E025003E
:102170001A684235111D196013682B70012365E040
:1021800008681A606906D3D500B2D1E719682568D6
:10219000081D186008682E0605D5544E08276F2ABA
:1021A0001BD00A2719E06D06F7D580B2F5E7453157
:1021B0004E4E0A7018682268011D006819601506E5
:1021C00021D5D30702D520231A43226010270028E7
:1021D00003D1202322689A43226023000022433344
:1021E0001A706368A360002B58DB042221689143B6
:1021F0002160002854D1029D002B5AD0250033784D
:1022000042352B7055E05506DBD580B2D9E71A6808
:102210000D68101D4969186013682E0601D51960F4
:1022200002E06D06FBD519800023029D23614FE07B
:102230001A68111D1960156800216268280000F0F5
:1022400015F9002801D0401B6060636823610023FA
:10225000029A13703CE023692A0004990398059DB3
:10226000A847431C3ED023689B0715D4079BE06812
:10227000984239DA180037E0220001231932049914
:102280000398059EB047431C2CD00135E368079A9C
:102290009B1AAB42F0DCE9E70025F7E70028ADD058
:1022A000029D390000F098F9735C013D2B70002805
:1022B000F7D1082F09D12368DB0706D563682269A7
:1022C000934202DC3023013D2B70029B5B1B236198
:1022D000059B07AA00932100049B0398FFF794FE37
:1022E000431CB8D10120404209B0F0BDD5F1010036
:1022F000E6F10100002370B5064C050008002360DC
:1023000000F0D6F8431C03D12368002B00D02B60CB
:1023100070BDC0466404002070B50C000E25495FF6
:1023200000F0B2F8002803DB636D1B18636570BD15
:10233000A389024A1340A381F9E7C046FFEFFFFFDC
:10234000F8B51F008B8905000C001600DB0505D5CC
:102350000E23C95E0022022300F074F8A389054A07
:1023600028001340A38132000E23E15E3B0000F001
:102370001FF8F8BDFFEFFFFF70B50C000E25495F99
:1023800000F060F8A389421C03D1054A1340A381E1
:1023900070BD802252011343A3816065F8E7C046F7
:1023A000FFEFFFFF10B50E23C95E00F015F810BD5A
:1023B00070B50500080011000022064C22601A00CA
:1023C000FEF79CF8431C03D12368002B00D02B6040
:1023D00070BDC04664040020002370B5064C0500A3
:1023E00008002360FEF797F8431C03D12368002BF5
:1023F00000D02B6070BDC04664040020002370B57F
:10240000064C0500080011002360FEF787F8431C06
:1024100003D12368002B00D02B6070BD6404002022
:10242000002370B5064C050008002360FEF77BF81A
:10243000431C03D12368002B00D02B6070BDC04625
:102440006404002070B50500080011000022064C4D
:1024500022601A00FEF769F8431C03D12368002BA1
:1024600000D02B6070BDC04664040020C9B2821841
:10247000904201D10020704703788B42FBD001309D
:10248000F6E770477047000070B5050008001100BE
:102490000022064C22601A00FEF749F8431C03D1C3
:1024A0002368002B00D02B6070BDC0466404002060
:1024B000044A1368002B00D1034B18181060180051
:1024C0007047C0465C0400206804002000224308D6
:1024D0008B4274D303098B425FD3030A8B4244D3EC
:1024E000030B8B4228D3030C8B420DD3FF2209022E
:1024F00012BA030C8B4202D31212090265D0030BED
:102500008B4219D300E0090AC30B8B4201D3CB03E2
:10251000C01A5241830B8B4201D38B03C01A524124
:10252000430B8B4201D34B03C01A5241030B8B4226
:1025300001D30B03C01A5241C30A8B4201D3CB0211
:10254000C01A5241830A8B4201D38B02C01A5241F6
:10255000430A8B4201D34B02C01A5241030A8B42F9
:1025600001D30B02C01A5241CDD2C3098B4201D311
:10257000CB01C01A524183098B4201D38B01C01A8F
:10258000524143098B4201D34B01C01A5241030906
:102590008B4201D30B01C01A5241C3088B4201D3B5
:1025A000CB00C01A524183088B4201D38B00C01A62
:1025B000524143088B4201D34B00C01A5241411A89
:1025C00000D20146524110467047FFE701B5002096
:1025D00000F006F802BDC0460029F7D076E7704744
:1025E0007047C046F8B557464E464546DE4644025B
:1025F000E0B546008846640A360EC70F002E63D049
:10260000FF2E24D08023E400DB041C4300239946E2
:102610009B467F3E434642465D02D20F5B006D0AF9
:102620001B0E9046924665D0FF2B55D0802200218C
:10263000ED00D2047F3B1543F61A43464A467B40E1
:102640000F2A00D98DE06D48920082589746002CE1
:1026500054D108239946063BFF269B46DAE700251E
:10266000534602291BD0032900D1BFE0012928D0FD
:1026700030007F30002820DD6A0704D00F222A4076
:10268000042A00D004352A0103D530005C4A80308A
:102690001540FE2803DCAC01640AC2B201E0FF224F
:1026A00000246402D205600ADB07104318433CBCD7
:1026B00090469946A246AB46F8BD0122101A1B2847
:1026C0007CDD00220024ECE7002C1DD10423994678
:1026D000033B00269B469DE7FF3E002D20D10221B3
:1026E00043464A467B400A430F2AD8D845489200C1
:1026F00082589746002D19D10121F1E70C23994604
:10270000093BFF269B4685E7200000F0DDFB76268F
:10271000431F9C4000237642361A99469B4679E730
:102720004A4603231A439146032186E7280000F016
:10273000CBFB431F36189D40763600217DE7802471
:102740000023E403FF22ACE700258023DB031C42C7
:1027500028D01D4226D12B435C02640A4346FF2247
:102760009FE762016C01A24224D21B210025013E99
:10277000012710006D005200002801DB944201D8AF
:10278000121B3D4301390029F3D11400621E94410C
:1027900025436DE7BA46594625005346022900D025
:1027A00061E77CE78023DB031C436402640A3B008F
:1027B000FF2276E7121B1A210125D9E79E362A004F
:1027C000B5402C00C240651EAC411443620704D0E2
:1027D0000F222240042A00D00434620103D4A40151
:1027E000640A00225DE7012200245AE78024E40302
:1027F0002C436402640AFF2253E7C046F8F101004B
:10280000FFFFFFF738F20100F0B54E465746454648
:10281000DE46E0B543025B0A450083B00F1C9946D3
:102820002D0EC60F002D57D0FF2D24D08020DB00A9
:10283000C0041843002381469A469B467F3D7C0294
:102840007A00FB0F640A120E984623D0FF2A4BD061
:10285000E30080240020E4047F3A1C43AD186B1C85
:1028600047460193534677403A000F2B48D87D499D
:102870009B00CB589F46002B00D085E008339A463A
:10288000063B9B467C027A00FB0FFF25640A120E72
:102890009846DBD1002C00D090E0524601231A4329
:1028A00092460120DBE74C4658461700022824D008
:1028B000032800D1CFE00022002301284DD1580287
:1028C000D205400AFF071043384303B03CBC904692
:1028D0009946A246AB46F0BD002B5BD104239A4635
:1028E000033B00259B46AAE7FF35002C60D15246EA
:1028F00002231A4392460220B1E7FF220023DEE7BB
:102900004B461B0C9C464B462604360C180461466D
:102910003300220C6446000C43434E43504354435F
:1029200080191A0C1218964203D9802149028C464C
:1029300064441B041B0C1004C01883015E1EB341C9
:10294000800E1843130C1B199B0103431C00230129
:1029500079D5012362081C401443019A7F32002A72
:102960004DDD630704D00F232340042B00D0043433
:10297000230103D53C4B019A1C408032FE2ABCDC6B
:10298000A3015B0AD2B29AE70C239A46093BFF25C2
:102990009B4654E7180000F097FA4A46431F7625F5
:1029A0009A4000236D4291462D1A9A469B4646E76F
:1029B000524603231A439246032050E7200000F0BA
:1029C00083FA431F2D1A9C40763D002047E7802361
:1029D0000027DB03FF2272E7424666E74C463200DF
:1029E000584662E780234A46DB031A4222D01C4243
:1029F00020D123435B025B0A4746FF225FE70123A6
:102A00009A1A1B2A21DC23000199D3409E318C4065
:102A10001A0023005C1EA34113435A0704D00F225F
:102A20001A40042A00D004335A0111D49B015B0AD6
:102A3000002244E780234A46DB0313435B025B0A20
:102A40003700FF223BE7019587E70022002336E7A6
:102A50000122002333E78023DB0323435B025B0A6D
:102A6000FF222CE778F20100FFFFFFF7F8B5474699
:102A7000CE464400C20F80B547024802400A844651
:102A8000664648007F0A240EF60025009046FB00AB
:102A9000000EC90FB146FF2800D185E00126714024
:102AA000261A914257D0002E43DD002800D07FE047
:102AB0004946002900D1AAE0013E002E00D0F7E0EF
:102AC0005B1A5A0100D48BE09B019C09200000F0A6
:102AD000FBF905388440854200DDD3E0451B230027
:102AE00020200135EB40451BAC40621E944123433E
:102AF000072400251C40012241460A40002C04D036
:102B00000F211940042900D00433590100D480E07A
:102B10000135ECB2FF2D00D0A3E0FF2400235B02BF
:102B2000E405580AD207204310430CBC904699464E
:102B3000F8BD002E74D1601CC0B2012800DCA7E0F3
:102B40004A469C1A620100D5B6E0002CBED1002294
:102B500000240023E3E7002E00DC85E0002846D0B7
:102B6000FF2C49D080224846D204104381460122DE
:102B70001B2E09DC20204C46801B84404A46200046
:102B8000F240441EA04102439B185A0128D501354A
:102B9000FF2D00D1A8E00122072494491A405B08C8
:102BA0000B4013431C40A6E7002E00D078E775E7E2
:102BB000FF2C54D080224946D20411438946012279
:102BC0001B2E09DC20214846891B88404A4601000B
:102BD000F240481E81410A439B1A5A0100D573E70F
:102BE000012241460A40590700D089E711E04846D2
:102BF000002858D1FF2C0CD1DB08002B00D18CE72A
:102C00008020C00303435B025B0AFF2487E7FF2C9D
:102C100025D0DB08FF2DF0D05B025B0AECB27EE72B
:102C2000002C4DD0FF2818D08024E40472422343A6
:102C30001B2A00DDC4E01C002025D440AA1A9340C2
:102C40005A1E934123434A460500D31A884638E763
:102C5000721CF8D0F243FF28EAD10A004B46FF2548
:102C6000D7E79B015B0A5AE7002E41D1651CE9B208
:102C7000012945DDFF2D00D14FE707244B445B08B8
:102C80001C4038E707225A4B2D1A2340144032E7E4
:102C9000002C1DD1002B7AD14B46002B00D191E0A6
:102CA0000A000025B5E7013E002E19D14B446CE720
:102CB000FF2C84D1FF25ACE74A468846D41A05E7A5
:102CC000002BC5D10A00FF28C8D005004B46A0E75D
:102CD000002B49D14B46002B77D00A00FF2598E7FF
:102CE000FF2C00D043E787E70A00FF24002316E704
:102CF000002C15D1002B57D1FF28E6D14B467BE79E
:102D0000002C20D1002B57D04946002953D04B44EA
:102D10005A0168D50724364A1C4001251340EAE6CB
:102D2000FF28EBD08022D204764213431B2E53DCC3
:102D30002025AD1B1A00AB40F2405C1EA34113439B
:102D40004B44050021E7002BD8D04946002900D18B
:102D500052E78021C9030F4200D14DE76046084287
:102D600000D049E74B4647E74846FF25002800D1F9
:102D70004FE78022D203174204D06046104201D1AF
:102D80004B46884601224146FF250A4041E7484616
:102D900000281FD01A1A500120D54A460724D31AFA
:102DA0001C4088460025A6E6741CC9D0F643FF28BF
:102DB000BCD14B4620E799464B460025DB082BE764
:102DC000012340E700220023A9E680230022DB0341
:102DD000FF24A4E600251CE70123B1E7002AF1D077
:102DE00013000025FCE60025FAE6C046FFFFFF7D44
:102DF000FFFFFFFB41024200C30F490A120E0020F1
:102E00007E2A0DD99D2A0CD8802000040143952AE2
:102E10000ADC9620821AD1404842002B00D10800DB
:102E20007047034A9818FBE7963A9140F4E7C0468A
:102E3000FFFFFF7F70B500283DD0C317C5185D4068
:102E4000C40F280000F040F89E22121A962A07DCD0
:102E5000D2B2082833DD083885406802400A23E0F2
:102E6000992A0BDD052329001B1AD94003001B33C7
:102E70009D402B005D1EAB4119430D00052801DD6F
:102E8000431F9D402B000F490B406E0709D00F26B2
:102E90003540042D05D004335D0102D59F220B403F
:102EA000121A9B01580AD2B24002D205400AE40726
:102EB0001043204370BD002400220020F4E7680284
:102EC000400AF1E7FFFFFFFB1C2101231B0498428E
:102ED00001D3000C10391B0A984201D3000A0839AB
:102EE0001B09984201D30009043902A2105C401862
:102EF0007047C04604030202010101010000000006
:102F000000000000F8B5C046F8BC08BC9E467047FB
:102F1000F8B5C046F8BC08BC9E46704700000000EB
:102F200000000000000000000000000000000000A1
:102F30000000000000000000000000000000000091
:102F40000000000000000000000000000000000081
:102F50000000000000000000000000000000000071
:1045C0000000000000000000200061086108610890
:1045D000610861086108610861086108610882106A
:1045E000C318C318C318C318C318C318C318C318F3
:1045F000C318C31804212421242124212421242187
:10460000242124212421242124218631863186312C
:1046100086318631863186318631863186318631E2
:10462000E739E739E739E739E739E739E739E7398A
:10463000E739E7390842694A694A694A694A694A71
:10464000694A694A694A694A694A8A52CB5ACB5AC5
:10465000CB5ACB5ACB5ACB5ACB5ACB5ACB5ACB5A32
:104660000C632C632C632C632C632C632C632C63F2
:104670002C632C632C638E738E738E738E738E7388
:104680008E738E738E738E738E738E73EF7BEF7B50
:10469000EF7BEF7BEF7BEF7BEF7BEF7BEF7BEF7BCA
:1046A0001084718C718C718C718C718C718C718C8B
:1046B000718C718C718C9294D39CD39CD39CD39C21
:1046C000D39CD39CD39CD39CD39CD39C14A534A5BE
:1046D00034A534A534A534A534A534A534A534A512
:1046E00034A575AD96B596B596B596B596B596B50D
:1046F00096B596B596B596B5F7BDF7BDF7BDF7BDBE
:10470000F7BDF7BDF7BDF7BDF7BDF7BD18C679CE4C
:1047100079CE79CE79CE79CE79CE79CE79CE79CE61
:1047200079CE9AD6DBDEDBDEDBDEDBDEDBDEDBDE7C
:10473000DBDEDBDEDBDEDBDE1CE73CE73CE73CE729
:104740003CE73CE73CE73CE73CE73CE73CE77DEF08
:104750009EF79EF79EF79EF79EF79EF79EF79EF7B1
:104760009EF79EF786310000000000000000000068
:104770000000000000000000000000000000000039
:104780000000000000000000000000000000000029
:104790000000000000000000000000000000000019
:1047A00000000000000000002000610861086108AE
:1047B0006108610861086108610861086108821088
:1047C000C318C318C318C318C318C318C318C31811
:1047D000C318C318042124212421242124212421A5
:1047E000242124212421242124218631863186314B
:1047F0008631863186318631863186318631863101
:10480000E739E739E739E739E739E739E739E739A8
:10481000E739E7390842694A694A694A694A694A8F
:10482000694A694A694A694A694A8A52CB5ACB5AE3
:10483000CB5ACB5ACB5ACB5ACB5ACB5ACB5ACB5A50
:104840000C632C632C632C632C632C632C632C6310
:104850002C632C632C638E738E738E738E738E73A6
:104860008E738E738E738E738E738E73EF7BEF7B6E
:10487000EF7BEF7BEF7BEF7BEF7BEF7BEF7BEF7BE8
:104880001084718C718C718C718C718C718C718CA9
:10489000718C718C718C9294D39CD39CD39CD39C3F
:1048A000D39CD39CD39CD39CD39CD39C14A534A5DC
:1048B00034A534A534A534A534A534A534A534A530
:1048C00034A575AD96B596B596B596B596B596B52B
:1048D00096B596B596B596B5F7BDF7BDF7BDF7BDDC
:1048E000F7BDF7BDF7BDF7BDF7BDF7BD18C679CE6B
:1048F00079CE79CE79CE79CE79CE79CE79CE79CE80
:1049000079CE9AD6DBDEDBDEDBDEDBDEDBDEDBDE9A
:10491000DBDEDBDEDBDEDBDE1CE73CE73CE73CE747
:104920003CE73CE73CE73CE73CE73CE73CE77DEF26
:104930009EF79EF79EF79EF79EF79EF79EF79EF7CF
:104940009EF79EF786310000000000000000000086
:104950000000000000000000000000000000000057
:104960000000000000000000000000000000000047
:104970000000000000000000000000000000000037
:1049800000000000000000002000610861086108CC
:1049900061086108610861086108610861088210A6
:1049A000C318C318C318C318C318C318C318C3182F
:1049B000C318C318042124212421242124212421C3
:1049C0002421242124212421242186318631863169
:1049D000863186318631863186318631863186311F
:1049E000E739E739E739E739E739E739E739E739C7
:1049F000E739E7390842694A694A694A694A694AAE
:104A0000694A694A694A694A694A8A52CB5ACB5A01
:104A1000CB5ACB5ACB5ACB5ACB5ACB5ACB5ACB5A6E
:104A20000C632C632C632C632C632C632C632C632E
:104A30002C632C632C638E738E738E738E738E73C4
:104A40008E738E738E738E738E738E73EF7BEF7B8C
:104A5000EF7BEF7BEF7BEF7BEF7BEF7BEF7BEF7B06
:104A60001084718C718C718C718C718C718C718CC7
:104A7000718C718C718C9294D39CD39CD39CD39C5D
:104A8000D39CD39CD39CD39CD39CD39C14A534A5FA
:104A900034A534A534A534A534A534A534A534A54E
:104AA00034A575AD96B596B596B596B596B596B549
:104AB00096B596B596B596B5F7BDF7BDF7BDF7BDFA
:104AC000F7BDF7BDF7BDF7BDF7BDF7BD18C679CE89
:104AD00079CE79CE79CE79CE79CE79CE79CE79CE9E
:104AE00079CE9AD6DBDEDBDEDBDEDBDEDBDEDBDEB9
:104AF000DBDEDBDEDBDEDBDE1CE73CE73CE73CE766
:104B00003CE73CE73CE73CE73CE73CE73CE77DEF44
:104B10009EF79EF79EF79EF79EF79EF79EF79EF7ED
:104B20009EF79EF7863100000000000000000000A4
:104B30000000000000000000000000000000000075
:104B40000000000000000000000000000000000065
:104B50000000000000000000000000000000000055
:104B600000000000000000002000610861086108EA
:104B700061086108610861086108610861088210C4
:104B8000C318C318C318C318C318C318C318C3184D
:104B9000C318C318042124212421242124212421E1
:104BA0002421242124212421242186318631863187
:104BB000863186318631863186318631863186313D
:104BC000E739E739E739E739E739E739E739E739E5
:104BD000E739E7390842694A694A694A694A694ACC
:104BE000694A694A694A694A694A8A52CB5ACB5A20
:104BF000CB5ACB5ACB5ACB5ACB5ACB5ACB5ACB5A8D
:104C00000C632C632C632C632C632C632C632C634C
:104C10002C632C632C638E738E738E738E738E73E2
:104C20008E738E738E738E738E738E73EF7BEF7BAA
:104C3000EF7BEF7BEF7BEF7BEF7BEF7BEF7BEF7B24
:104C40001084718C718C718C718C718C718C718CE5
:104C5000718C718C718C9294D39CD39CD39CD39C7B
:104C6000D39CD39CD39CD39CD39CD39C14A534A518
:104C700034A534A534A534A534A534A534A534A56C
:104C800034A575AD96B596B596B596B596B596B567
:104C900096B596B596B596B5F7BDF7BDF7BDF7BD18
:104CA000F7BDF7BDF7BDF7BDF7BDF7BD18C679CEA7
:104CB00079CE79CE79CE79CE79CE79CE79CE79CEBC
:104CC00079CE9AD6DBDEDBDEDBDEDBDEDBDEDBDED7
:104CD000DBDEDBDEDBDEDBDE1CE73CE73CE73CE784
:104CE0003CE73CE73CE73CE73CE73CE73CE77DEF63
:104CF0009EF79EF79EF79EF79EF79EF79EF79EF70C
:104D00009EF79EF7863100000000000000000000C2
:104D10000000000000000000000000000000000093
:104D20000000000000000000000000000000000083
:104D30000000000000000000000000000000000073
:104D40000000000000000000200061086108610808
:104D500061086108610861086108610861088210E2
:104D6000C318C318C318C318C318C318C318C3186B
:104D7000C318C318042124212421242124212421FF
:104D800024212421242124212421863186318631A5
:104D9000863186318631863186318631863186315B
:104DA000E739E739E739E739E739E739E739E73903
:104DB000E739E7390842694A694A694A694A694AEA
:104DC000694A694A694A694A694A8A52CB5ACB5A3E
:104DD000CB5ACB5ACB5ACB5ACB5ACB5ACB5ACB5AAB
:104DE0000C632C632C632C632C632C632C632C636B
:104DF0002C632C632C638E738E738E738E738E7301
:104E00008E738E738E738E738E738E73EF7BEF7BC8
:104E1000EF7BEF7BEF7BEF7BEF7BEF7BEF7BEF7B42
:104E20001084718C718C718C718C718C718C718C03
:104E3000718C718C718C9294D39CD39CD39CD39C99
:104E4000D39CD39CD39CD39CD39CD39C14A534A536
:104E500034A534A534A534A534A534A534A534A58A
:104E600034A575AD96B596B596B596B596B596B585
:104E700096B596B596B596B5F7BDF7BDF7BDF7BD36
:104E8000F7BDF7BDF7BDF7BDF7BDF7BD18C679CEC5
:104E900079CE79CE79CE79CE79CE79CE79CE79CEDA
:104EA00079CE9AD6DBDEDBDEDBDEDBDEDBDEDBDEF5
:104EB000DBDEDBDEDBDEDBDE1CE73CE73CE73CE7A2
:104EC0003CE73CE73CE73CE73CE73CE73CE77DEF81
:104ED0009EF79EF79EF79EF79EF79EF79EF79EF72A
:104EE0009EF79EF7863100000000000000000000E1
:104EF00000000000000000000000000000000000B2
:104F000000000000000000000000000000000000A1
:104F10000000000000000000000000000000000091
:104F20000000000000000000200061086108610826
:104F30006108610861086108610861086108821000
:104F4000C318C318C318C318C318C318C318C31889
:104F5000C318C3180421242124212421242124211D
:104F600024212421242124212421863186318631C3
:104F70008631863186318631863186318631863179
:104F8000E739E739E739E739E739E739E739E73921
:104F9000E739E7390842694A694A694A694A694A08
:104FA000694A694A694A694A694A8A52CB5ACB5A5C
:104FB000CB5ACB5ACB5ACB5ACB5ACB5ACB5ACB5AC9
:104FC0000C632C632C632C632C632C632C632C6389
:104FD0002C632C632C638E738E738E738E738E731F
:104FE0008E738E738E738E738E738E73EF7BEF7BE7
:104FF000EF7BEF7BEF7BEF7BEF7BEF7BEF7BEF7B61
:105000001084718C718C718C718C718C718C718C21
:10501000718C718C718C9294D39CD39CD39CD39CB7
:10502000D39CD39CD39CD39CD39CD39C14A534A554
:1050300034A534A534A534A534A534A534A534A5A8
:1050400034A575AD96B596B596B596B596B596B5A3
:1050500096B596B596B596B5F7BDF7BDF7BDF7BD54
:10506000F7BDF7BDF7BDF7BDF7BDF7BD18C679CEE3
:1050700079CE79CE79CE79CE79CE79CE79CE79CEF8
:1050800079CE9AD6DBDEDBDEDBDEDBDEDBDEDBDE13
:10509000DBDEDBDEDBDEDBDE1CE73CE73CE73CE7C0
:1050A0003CE73CE73CE73CE73CE73CE73CE77DEF9F
:1050B0009EF79EF79EF79EF79EF79EF79EF79EF748
:1050C0009EF79EF7863100000000000000000000FF
:1050D00000000000000000000000000000000000D0
:1050E00000000000000000000000000000000000C0
:1050F00000000000000000000000000000000000B0
:105100000000000000000000200061086108610844
:10511000610861086108610861086108610882101E
:10512000C318C318C318C318C318C318C318C318A7
:10513000C318C3180421242124212421242124213B
:1051400024212421242124212421863186318631E1
:105150008631863186318631863186318631863197
:10516000E739E739E739E739E739E739E739E7393F
:10517000E739E7390842694A694A694A694A694A26
:10518000694A694A694A694A694A8A52CB5ACB5A7A
:10519000CB5ACB5ACB5ACB5ACB5ACB5ACB5ACB5AE7
:1051A0000C632C632C632C632C632C632C632C63A7
:1051B0002C632C632C638E738E738E738E738E733D
:1051C0008E738E738E738E738E738E73EF7BEF7B05
:1051D000EF7BEF7BEF7BEF7BEF7BEF7BEF7BEF7B7F
:1051E0001084718C718C718C718C718C718C718C40
:1051F000718C718C718C9294D39CD39CD39CD39CD6
:10520000D39CD39CD39CD39CD39CD39C14A534A572
:1052100034A534A534A534A534A534A534A534A5C6
:1052200034A575AD96B596B596B596B596B596B5C1
:1052300096B596B596B596B5F7BDF7BDF7BDF7BD72
:10524000F7BDF7BDF7BDF7BDF7BDF7BD18C679CE01
:1052500079CE79CE79CE79CE79CE79CE79CE79CE16
:1052600079CE9AD6DBDEDBDEDBDEDBDEDBDEDBDE31
:10527000DBDEDBDEDBDEDBDE1CE73CE73CE73CE7DE
:105280003CE73CE73CE73CE73CE73CE73CE77DEFBD
:105290009EF79EF79EF79EF79EF79EF79EF79EF766
:1052A0009EF79EF78631000000000000000000001D
:1052B00000000000000000000000000000000000EE
:1052C00000000000000000000000000000000000DE
:1052D00000000000000000000000000000000000CE
:1052E0000000000000000000200061086108610863
:1052F000610861086108610861086108610882103D
:10530000C318C318C318C318C318C318C318C318C5
:10531000C318C31804212421242124212421242159
:1053200024212421242124212421863186318631FF
:1053300086318631863186318631863186318631B5
:10534000E739E739E739E739E739E739E739E7395D
:10535000E739E7390842694A694A694A694A694A44
:10536000694A694A694A694A694A8A52CB5ACB5A98
:10537000CB5ACB5ACB5ACB5ACB5ACB5ACB5ACB5A05
:105380000C632C632C632C632C632C632C632C63C5
:105390002C632C632C638E738E738E738E738E735B
:1053A0008E738E738E738E738E738E73EF7BEF7B23
:1053B000EF7BEF7BEF7BEF7BEF7BEF7BEF7BEF7B9D
:1053C0001084718C718C718C718C718C718C718C5E
:1053D000718C718C718C9294D39CD39CD39CD39CF4
:1053E000D39CD39CD39CD39CD39CD39C14A534A591
:1053F00034A534A534A534A534A534A534A534A5E5
:1054000034A575AD96B596B596B596B596B596B5DF
:1054100096B596B596B596B5F7BDF7BDF7BDF7BD90
:10542000F7BDF7BDF7BDF7BDF7BDF7BD18C679CE1F
:1054300079CE79CE79CE79CE79CE79CE79CE79CE34
:1054400079CE9AD6DBDEDBDEDBDEDBDEDBDEDBDE4F
:10545000DBDEDBDEDBDEDBDE1CE73CE73CE73CE7FC
:105460003CE73CE73CE73CE73CE73CE73CE77DEFDB
:105470009EF79EF79EF79EF79EF79EF79EF79EF784
:105480009EF79EF78631000000000000000000003B
:10549000000000000000000000000000000000000C
:1054A00000000000000000000000000000000000FC
:1054B00000000000000000000000000000000000EC
:1054C0000000000000000000200061086108610881
:1054D000610861086108610861086108610882105B
:1054E000C318C318C318C318C318C318C318C318E4
:1054F000C318C31804212421242124212421242178
:10550000242124212421242124218631863186311D
:1055100086318631863186318631863186318631D3
:10552000E739E739E739E739E739E739E739E7397B
:10553000E739E7390842694A694A694A694A694A62
:10554000694A694A694A694A694A8A52CB5ACB5AB6
:10555000CB5ACB5ACB5ACB5ACB5ACB5ACB5ACB5A23
:105560000C632C632C632C632C632C632C632C63E3
:105570002C632C632C638E738E738E738E738E7379
:105580008E738E738E738E738E738E73EF7BEF7B41
:10559000EF7BEF7BEF7BEF7BEF7BEF7BEF7BEF7BBB
:1055A0001084718C718C718C718C718C718C718C7C
:1055B000718C718C718C9294D39CD39CD39CD39C12
:1055C000D39CD39CD39CD39CD39CD39C14A534A5AF
:1055D00034A534A534A534A534A534A534A534A503
:1055E00034A575AD96B596B596B596B596B596B5FE
:1055F00096B596B596B596B5F7BDF7BDF7BDF7BDAF
:10560000F7BDF7BDF7BDF7BDF7BDF7BD18C679CE3D
:1056100079CE79CE79CE79CE79CE79CE79CE79CE52
:1056200079CE9AD6DBDEDBDEDBDEDBDEDBDEDBDE6D
:10563000DBDEDBDEDBDEDBDE1CE73CE73CE73CE71A
:105640003CE73CE73CE73CE73CE73CE73CE77DEFF9
:105650009EF79EF79EF79EF79EF79EF79EF79EF7A2
:105660009EF79EF786310000000000000000000059
:10567000000000000000000000000000000000002A
:10568000000000000000000000000000000000001A
:10569000000000000000000000000000000000000A
:1056A000000000000000000020006108610861089F
:1056B0006108610861086108610861086108821079
:1056C000C318C318C318C318C318C318C318C31802
:1056D000C318C31804212421242124212421242196
:1056E000242124212421242124218631863186313C
:1056F00086318631863186318631863186318631F2
:10570000E739E739E739E739E739E739E739E73999
:10571000E739E7390842694A694A694A694A694A80
:10572000694A694A694A694A694A8A52CB5ACB5AD4
:10573000CB5ACB5ACB5ACB5ACB5ACB5ACB5ACB5A41
:105740000C632C632C632C632C632C632C632C6301
:105750002C632C632C638E738E738E738E738E7397
:105760008E738E738E738E738E738E73EF7BEF7B5F
:10577000EF7BEF7BEF7BEF7BEF7BEF7BEF7BEF7BD9
:105780001084718C718C718C718C718C718C718C9A
:10579000718C718C718C9294D39CD39CD39CD39C30
:1057A000D39CD39CD39CD39CD39CD39C14A534A5CD
:1057B00034A534A534A534A534A534A534A534A521
:1057C00034A575AD96B596B596B596B596B596B51C
:1057D00096B596B596B596B5F7BDF7BDF7BDF7BDCD
:1057E000F7BDF7BDF7BDF7BDF7BDF7BD18C679CE5C
:1057F00079CE79CE79CE79CE79CE79CE79CE79CE71
:1058000079CE9AD6DBDEDBDEDBDEDBDEDBDEDBDE8B
:10581000DBDEDBDEDBDEDBDE1CE73CE73CE73CE738
:105820003CE73CE73CE73CE73CE73CE73CE77DEF17
:105830009EF79EF79EF79EF79EF79EF79EF79EF7C0
:105840009EF79EF786310000000000000000000077
:105850000000000000000000000000000000000048
:105860000000000000000000000000000000000038
:105870000000000000000000000000000000000028
:1058800000000000000000002000610861086108BD
:105890006108610861086108610861086108821097
:1058A000C318C318C318C318C318C318C318C31820
:1058B000C318C318042124212421242124212421B4
:1058C000242124212421242124218631863186315A
:1058D0008631863186318631863186318631863110
:1058E000E739E739E739E739E739E739E739E739B8
:1058F000E739E7390842694A694A694A694A694A9F
:10590000694A694A694A694A694A8A52CB5ACB5AF2
:10591000CB5ACB5ACB5ACB5ACB5ACB5ACB5ACB5A5F
:105920000C632C632C632C632C632C632C632C631F
:105930002C632C632C638E738E738E738E738E73B5
:105940008E738E738E738E738E738E73EF7BEF7B7D
:10595000EF7BEF7BEF7BEF7BEF7BEF7BEF7BEF7BF7
:105960001084718C718C718C718C718C718C718CB8
:10597000718C718C718C9294D39CD39CD39CD39C4E
:10598000D39CD39CD39CD39CD39CD39C14A534A5EB
:1059900034A534A534A534A534A534A534A534A53F
:1059A00034A575AD96B596B596B596B596B596B53A
:1059B00096B596B596B596B5F7BDF7BDF7BDF7BDEB
:1059C000F7BDF7BDF7BDF7BDF7BDF7BD18C679CE7A
:1059D00079CE79CE79CE79CE79CE79CE79CE79CE8F
:1059E00079CE9AD6DBDEDBDEDBDEDBDEDBDEDBDEAA
:1059F000DBDEDBDEDBDEDBDE1CE73CE73CE73CE757
:105A00003CE73CE73CE73CE73CE73CE73CE77DEF35
:105A10009EF79EF79EF79EF79EF79EF79EF79EF7DE
:105A20009EF79EF786310000000000000000000095
:105A30000000000000000000000000000000000066
:105A40000000000000000000000000000000000056
:105A50000000000000000000000000000000000046
:105A600000000000000000002000610861086108DB
:105A700061086108610861086108610861088210B5
:105A8000C318C318C318C318C318C318C318C3183E
:105A9000C318C318042124212421242124212421D2
:105AA0002421242124212421242186318631863178
:105AB000863186318631863186318631863186312E
:105AC000E739E739E739E739E739E739E739E739D6
:105AD000E739E7390842694A694A694A694A694ABD
:105AE000694A694A694A694A694A8A52CB5ACB5A11
:105AF000CB5ACB5ACB5ACB5ACB5ACB5ACB5ACB5A7E
:105B00000C632C632C632C632C632C632C632C633D
:105B10002C632C632C638E738E738E738E738E73D3
:105B20008E738E738E738E738E738E73EF7BEF7B9B
:105B3000EF7BEF7BEF7BEF7BEF7BEF7BEF7BEF7B15
:105B40001084718C718C718C718C718C718C718CD6
:105B5000718C718C718C9294D39CD39CD39CD39C6C
:105B6000D39CD39CD39CD39CD39CD39C14A534A509
:105B700034A534A534A534A534A534A534A534A55D
:105B800034A575AD96B596B596B596B596B596B558
:105B900096B596B596B596B5F7BDF7BDF7BDF7BD09
:105BA000F7BDF7BDF7BDF7BDF7BDF7BD18C679CE98
:105BB00079CE79CE79CE79CE79CE79CE79CE79CEAD
:105BC00079CE9AD6DBDEDBDEDBDEDBDEDBDEDBDEC8
:105BD000DBDEDBDEDBDEDBDE1CE73CE73CE73CE775
:105BE0003CE73CE73CE73CE73CE73CE73CE77DEF54
:105BF0009EF79EF79EF79EF79EF79EF79EF79EF7FD
:105C00009EF79EF7863100000000000000000000B3
:105C10000000000000000000000000000000000084
:105C20000000000000000000000000000000000074
:105C30000000000000000000000000000000000064
:105C400000000000000000002000610861086108F9
:105C500061086108610861086108610861088210D3
:105C6000C318C318C318C318C318C318C318C3185C
:105C7000C318C318042124212421242124212421F0
:105C80002421242124212421242186318631863196
:105C9000863186318631863186318631863186314C
:105CA000E739E739E739E739E739E739E739E739F4
:105CB000E739E7390842694A694A694A694A694ADB
:105CC000694A694A694A694A694A8A52CB5ACB5A2F
:105CD000CB5ACB5ACB5ACB5ACB5ACB5ACB5ACB5A9C
:105CE0000C632C632C632C632C632C632C632C635C
:105CF0002C632C632C638E738E738E738E738E73F2
:105D00008E738E738E738E738E738E73EF7BEF7BB9
:105D1000EF7BEF7BEF7BEF7BEF7BEF7BEF7BEF7B33
:105D20001084718C718C718C718C718C718C718CF4
:105D3000718C718C718C9294D39CD39CD39CD39C8A
:105D4000D39CD39CD39CD39CD39CD39C14A534A527
:105D500034A534A534A534A534A534A534A534A57B
:105D600034A575AD96B596B596B596B596B596B576
:105D700096B596B596B596B5F7BDF7BDF7BDF7BD27
:105D8000F7BDF7BDF7BDF7BDF7BDF7BD18C679CEB6
:105D900079CE79CE79CE79CE79CE79CE79CE79CECB
:105DA00079CE9AD6DBDEDBDEDBDEDBDEDBDEDBDEE6
:105DB000DBDEDBDEDBDEDBDE1CE73CE73CE73CE793
:105DC0003CE73CE73CE73CE73CE73CE73CE77DEF72
:105DD0009EF79EF79EF79EF79EF79EF79EF79EF71B
:105DE0009EF79EF7863100000000000000000000D2
:105DF00000000000000000000000000000000000A3
:105E00000000000000000000000000000000000092
:105E10000000000000000000000000000000000082
:105E20000000000000000000200061086108610817
:105E300061086108610861086108610861088210F1
:105E4000C318C318C318C318C318C318C318C3187A
:105E5000C318C3180421242124212421242124210E
:105E600024212421242124212421863186318631B4
:105E7000863186318631863186318631863186316A
:105E8000E739E739E739E739E739E739E739E73912
:105E9000E739E7390842694A694A694A694A694AF9
:105EA000694A694A694A694A694A8A52CB5ACB5A4D
:105EB000CB5ACB5ACB5ACB5ACB5ACB5ACB5ACB5ABA
:105EC0000C632C632C632C632C632C632C632C637A
:105ED0002C632C632C638E738E738E738E738E7310
:105EE0008E738E738E738E738E738E73EF7BEF7BD8
:105EF000EF7BEF7BEF7BEF7BEF7BEF7BEF7BEF7B52
:105F00001084718C718C718C718C718C718C718C12
:105F1000718C718C718C9294D39CD39CD39CD39CA8
:105F2000D39CD39CD39CD39CD39CD39C14A534A545
:105F300034A534A534A534A534A534A534A534A599
:105F400034A575AD96B596B596B596B596B596B594
:105F500096B596B596B596B5F7BDF7BDF7BDF7BD45
:105F6000F7BDF7BDF7BDF7BDF7BDF7BD18C679CED4
:105F700079CE79CE79CE79CE79CE79CE79CE79CEE9
:105F800079CE9AD6DBDEDBDEDBDEDBDEDBDEDBDE04
:105F9000DBDEDBDEDBDEDBDE1CE73CE73CE73CE7B1
:105FA0003CE73CE73CE73CE73CE73CE73CE77DEF90
:105FB0009EF79EF79EF79EF79EF79EF79EF79EF739
:105FC0009EF79EF7863100000000000000000000F0
:105FD00000000000000000000000000000000000C1
:105FE00000000000000000000000000000000000B1
:105FF00000000000000000000000000000000000A1
:106000000000000000000000200061086108610835
:10601000610861086108610861086108610882100F
:10602000C318C318C318C318C318C318C318C31898
:10603000C318C3180421242124212421242124212C
:1060400024212421242124212421863186318631D2
:106050008631863186318631863186318631863188
:10606000E739E739E739E739E739E739E739E73930
:10607000E739E7390842694A694A694A694A694A17
:10608000694A694A694A694A694A8A52CB5ACB5A6B
:10609000CB5ACB5ACB5ACB5ACB5ACB5ACB5ACB5AD8
:1060A0000C632C632C632C632C632C632C632C6398
:1060B0002C632C632C638E738E738E738E738E732E
:1060C0008E738E738E738E738E738E73EF7BEF7BF6
:1060D000EF7BEF7BEF7BEF7BEF7BEF7BEF7BEF7B70
:1060E0001084718C718C718C718C718C718C718C31
:1060F000718C718C718C9294D39CD39CD39CD39CC7
:10610000D39CD39CD39CD39CD39CD39C14A534A563
:1061100034A534A534A534A534A534A534A534A5B7
:1061200034A575AD96B596B596B596B596B596B5B2
:1061300096B596B596B596B5F7BDF7BDF7BDF7BD63
:10614000F7BDF7BDF7BDF7BDF7BDF7BD18C679CEF2
:1061500079CE79CE79CE79CE79CE79CE79CE79CE07
:1061600079CE9AD6DBDEDBDEDBDEDBDEDBDEDBDE22
:10617000DBDEDBDEDBDEDBDE1CE73CE73CE73CE7CF
:106180003CE73CE73CE73CE73CE73CE73CE77DEFAE
:106190009EF79EF79EF79EF79EF79EF79EF79EF757
:1061A0009EF79EF78631000000000000000000000E
:1061B00000000000000000000000000000000000DF
:1061C00000000000000000000000000000000000CF
:1061D00000000000000000000000000000000000BF
:1061E0000000000000000000200061086108610854
:1061F000610861086108610861086108610882102E
:10620000C318C318C318C318C318C318C318C318B6
:10621000C318C3180421242124212421242124214A
:1062200024212421242124212421863186318631F0
:1062300086318631863186318631863186318631A6
:10624000E739E739E739E739E739E739E739E7394E
:10625000E739E7390842694A694A694A694A694A35
:10626000694A694A694A694A694A8A52CB5ACB5A89
:10627000CB5ACB5ACB5ACB5ACB5ACB5ACB5ACB5AF6
:106280000C632C632C632C632C632C632C632C63B6
:106290002C632C632C638E738E738E738E738E734C
:1062A0008E738E738E738E738E738E73EF7BEF7B14
:1062B000EF7BEF7BEF7BEF7BEF7BEF7BEF7BEF7B8E
:1062C0001084718C718C718C718C718C718C718C4F
:1062D000718C718C718C9294D39CD39CD39CD39CE5
:1062E000D39CD39CD39CD39CD39CD39C14A534A582
:1062F00034A534A534A534A534A534A534A534A5D6
:1063000034A575AD96B596B596B596B596B596B5D0
:1063100096B596B596B596B5F7BDF7BDF7BDF7BD81
:10632000F7BDF7BDF7BDF7BDF7BDF7BD18C679CE10
:1063300079CE79CE79CE79CE79CE79CE79CE79CE25
:1063400079CE9AD6DBDEDBDEDBDEDBDEDBDEDBDE40
:10635000DBDEDBDEDBDEDBDE1CE73CE73CE73CE7ED
:106360003CE73CE73CE73CE73CE73CE73CE77DEFCC
:106370009EF79EF79EF79EF79EF79EF79EF79EF775
:106380009EF79EF78631000000000000000000002C
:1063900000000000000000000000000000000000FD
:1063A00000000000000000000000000000000000ED
:1063B00000000000000000000000000000000000DD
:1063C00000000000000000000000000000000000CD
:1063D000000000000000000000000000000020009D
:1063E00020002000200020002000200020002000AD
:1063F00020002000410841084108410841084108A7
:1064000041084108410841084108610861086108E4
:106410006108610861086108610861086108610834
:1064200082108210821082108210821082108210DC
:10643000821082108210821010849EF79EF79EF7C1
:106440009EF79EF79EF79EF79EF79EF79EF79EF7A4
:106450009EF79EF79EF79EF79EF79EF79EF79EF794
:106460009EF79EF79EF79EF79EF79EF79EF79EF784
:106470009EF79EF79EF79EF79EF79EF79EF79EF774
:106480009EF79EF79EF79EF79EF79EF79EF79EF764
:106490009EF79EF79EF79EF79EF79EF79EF79EF754
:1064A0009EF79EF79EF79EF79EF79EF79EF79EF744
:1064B0009EF79EF79EF79EF79EF79EF79EF79EF734
:1064C0009EF79EF79EF79EF79EF79EF7BEF7BEF7E4
:1064D000BEF7BEF7BEF7BEF7BEF7BEF7BEF7BEF714
:1064E0006D6B6529652965296529652965296529F2
:1064F0006529652965296529863186318631863188
:1065000086318631863186318631863186318631D3
:1065100086318631863186318631863186318631C3
:106520008631A631A631A631A631A631A631A631D3
:10653000A631A631A631A631C739C739C739C739FF
:10654000C739C739C739C739C739C739C739E7392B
:10655000E739E739E739E739E739E739E739E7393B
:10656000E739E73961080000000000000000000082
:10657000000000000000000000000000000000001B
:10658000000000000000000000000000000000000B
:1065900000000000000000000000000000000000FB
:1065A00000000000000000000000000000000000EB
:1065B00000000000000000000000000000000000DB
:1065C00000000000000000000000000000000000CB
:1065D00000000000000000000000000000000000BB
:1065E00000000000000000000000000000000000AB
:1065F000000000000000000000000000000000009B
:10660000000000000000000000000000000000008A
:106610000000000000000000518CFFFFFFFFFFFFA3
:10662000FFFFFFFFFFFFFFFFFFFFFFFFFFFFFFFF7A
:10663000FFFFFFFFFFFFFFFFFFFFFFFFFFFFFFFF6A
:10664000FFFFFFFFFFFFFFFFFFFFFFFFFFFFFFFF5A
:10665000FFFFFFFFFFFFFFFFFFFFFFFFFFFFFFFF4A
:10666000FFFFFFFFFFFFFFFFFFFFFFFFFFFFFFFF3A
:10667000FFFFFFFFFFFFFFFFFFFFFFFFFFFFFFFF2A
:10668000FFFFFFFFFFFFFFFFFFFFFFFFFFFFFFFF1A
:10669000FFFFFFFFFFFFFFFFFFFFFFFFFFFFFFFF0A
:1066A000FFFFFFFFFFFFFFFFFFFFFFFFFFFFFFFFFA
:1066B000FFFFFFFFFFFFFFFFFFFFFFFFFFFFFFFFEA
:1066C000EB5A000000000000000000000000000085
:1066D00000000000000000000000000000000000BA
:1066E00000000000000000000000000000000000AA
:1066F000000000000000000000000000000000009A
:106700000000000000000000000000000000000089
:106710000000000000000000000000000000000079
:106720000000000000000000000000000000000069
:106730000000000000000000000000000000000059
:106740000000000000000000000000000000000049
:106750000000000000000000000000000000000039
:106760000000000000000000000000000000000029
:106770000000000000000000000000000000000019
:106780000000000000000000000000000000000009
:1067900000000000000000000000000000000000F9
:1067A00000000000000000000000000000000000E9
:1067B00000000000000000000000000000000000D9
:1067C00000000000000000000000000000000000C9
:1067D00000000000000000000000000000000000B9
:1067E00000000000000000000000000000000000A9
:1067F00000000000000000001084FFFFFFFFFFFF0B
:10680000FFFFFFFFFFFFFFFFFFFFFFFFFFFFFFFF98
:10681000FFFFFFFFFFFFFFFFFFFFFFFFFFFFFFFF88
:10682000FFFFFFFFFFFFFFFFFFFFFFFFFFFFFFFF78
:10683000FFFFFFFFFFFFFFFFFFFFFFFFFFFFFFFF68
:10684000FFFFFFFFFFFFFFFFFFFFFFFFFFFFFFFF58
:10685000FFFFFFFFFFFFFFFFFFFFFFFFFFFFFFFF48
:10686000FFFFFFFFFFFFFFFFFFFFFFFFFFFFFFFF38
:10687000FFFFFFFFFFFFFFFFFFFFFFFFFFFFFFFF28
:10688000FFFFFFFFFFFFFFFFFFFFFFFFFFFFFFFF18
:10689000FFFFFFFFFFFFFFFFFFFFFFFFFFFFFFFF08
:1068A000AA520000000000000000000000000000EC
:1068B00000000000000000000000000000000000D8
:1068C00000000000000000000000000000000000C8
:1068D00000000000000000000000000000000000B8
:1068E00000000000000000000000000000000000A8
:1068F0000000000000000000000000000000000098
:106900000000000000000000000000000000000087
:106910000000000000000000000000000000000077
:106920000000000000000000000000000000000067
:106930000000000000000000000000000000000057
:106940000000000000000000000000000000000047
:106950000000000000000000000000000000000037
:106960000000000000000000000000000000000027
:106970000000000000000000000000000000000017
:106980000000000000000000000000000000000007
:1069900000000000000000000000000000000000F7
:1069A00000000000000000000000000000000000E7
:1069B00000000000000000000000000000000000D7
:1069C00000000000000000000000000000000000C7
:1069D00000000000000000001084FFFFFFFFFFFF29
:1069E000FFFFFFFFFFFFFFFFFFFFFFFFFFFFFFFFB7
:1069F000FFFFFFFFFFFFFFFFFFFFFFFFFFFFFFFFA7
:106A0000FFFFFFFFFFFFFFFFFFFFFFFFFFFFFFFF96
:106A1000FFFFFFFFFFFFFFFFFFFFFFFFFFFFFFFF86
:106A2000FFFFFFFFFFFFFFFFFFFFFFFFFFFFFFFF76
:106A3000FFFFFFFFFFFFFFFFFFFFFFFFFFFFFFFF66
:106A4000FFFFFFFFFFFFFFFFFFFFFFFFFFFFFFFF56
:106A5000FFFFFFFFFFFFFFFFFFFFFFFFFFFFFFFF46
:106A6000FFFFFFFFFFFFFFFFFFFFFFFFFFFFFFFF36
:106A7000FFFFFFFFFFFFFFFFFFFFFFFFFFFFFFFF26
:106A8000AA5200000000000000000000000000000A
:106A900000000000000000000000000000000000F6
:106AA00000000000000000000000000000000000E6
:106AB00000000000000000000000000000000000D6
:106AC00000000000000000000000000000000000C6
:106AD00000000000000000000000000000000000B6
:106AE00000000000000000000000000000000000A6
:106AF0000000000000000000000000000000000096
:106B00000000000000000000000000000000000085
:106B10000000000000000000000000000000000075
:106B20000000000000000000000000000000000065
:106B30000000000000000000000000000000000055
:106B40000000000000000000000000000000000045
:106B50000000000000000000000000000000000035
:106B60000000000000000000000000000000000025
:106B70000000000000000000000000000000000015
:106B80000000000000000000000000000000000005
:106B900000000000000000000000000000000000F5
:106BA00000000000000000000000000000000000E5
:106BB00000000000000000001084FFFFFFFFFFFF47
:106BC000FFFFFFFFFFFFFFFFFFFFFFFFFFFFFFFFD5
:106BD000FFFFFFFFFFFFFFFFFFFFFFFFFFFFFFFFC5
:106BE000FFFFFFFFFFFFFFFFFFFFFFFFFFFFFFFFB5
:106BF000FFFFFFFFFFFFFFFFFFFFFFFFFFFFFFFFA5
:106C0000FFFFFFFFFFFFFFFFFFFFFFFFFFFFFFFF94
:106C1000FFFFFFFFFFFFFFFFFFFFFFFFFFFFFFFF84
:106C2000FFFFFFFFFFFFFFFFFFFFFFFFFFFFFFFF74
:106C3000FFFFFFFFFFFFFFFFFFFFFFFFFFFFFFFF64
:106C4000FFFFFFFFFFFFFFFFFFFFFFFFFFFFFFFF54
:106C5000FFFFFFFFFFFFFFFFFFFFFFFFFFFFFFFF44
:106C6000AA52000000000000000000000000000028
:106C70000000000000000000000000000000000014
:106C80000000000000000000000000000000000004
:106C900000000000000000000000000000000000F4
:106CA00000000000000000000000000000000000E4
:106CB00000000000000000000000000000000000D4
:106CC00000000000000000000000000000000000C4
:106CD00000000000000000000000000000000000B4
:106CE00000000000000000000000000000000000A4
:106CF0000000000000000000000000000000000094
:106D00000000000000000000000000000000000083
:106D10000000000000000000000000000000000073
:106D20000000000000000000000000000000000063
:106D3000000000000000000000000000000000084B
:106D40000008000800080008000800080008000803
:106D500000080008001000100010001000100010C3
:106D6000001000100010001000100018001800188B
:106D70000018001800180018001800180018001853
:106D80000020002000200020002000200020002003
:106D900000200020002000201094FFFFFFFFFFFFD5
:106DA000FFFFFFFFFFFFFFFFFFFFFFFFFFFFFFFFF3
:106DB000FFFFFFFFFFFFFFFFFFFFBEF79EF79EF7FE
:106DC0009EF79EF79EF79EF79EF79EF79EF79EF71B
:106DD0009EF79EF79EF79EF79EF79EF79EF79EF70B
:106DE0009EF79EF79EF79EF79EF79EF79EF79EF7FB
:106DF0009EF79EF79EF79EF79EF79EF79EF79EF7EB
:106E00009EF79EF79EF79EF79EF79EF79EF79EF7DA
:106E10009EF79EF79EF79EF79EF79EF79EF7DFFF81
:106E2000FFFFFFFFFFFFFFFFFFFFFFFFFFFFFFFF72
:106E3000FFFFFFFFFFFFFFFFFFFFFFFFFFFFFFFF62
:106E4000AA8A0058005800580058005800580058A6
:106E50000058005800580058006000600060006052
:106E60000060006000600060006000600060006022
:106E70000060006000600060006000600060006012
:106E800000600068006800680068006800680068CA
:106E90000068006800680068007000700070007092
:106EA000007000700070007000700070007000785A
:106EB0000078007800780078007800780078007812
:106EC00000780078001800000000000000000000BA
:106ED00000000000000000000000000000000000B2
:106EE00000000000000000000000000000000000A2
:106EF0000000000000000000000000000000000092
:106F00000000000000000000000000080008000869
:106F10000008000800080008000800080008001029
:106F200000180018001800180018001800180018A1
:106F30000018001800200020002000200020002061
:106F40000020002000200020002000300030003011
:106F500000300030003000300030003000300030B1
:106F60000040004000400040004000400040004021
:106F7000004000400040004810A4FFFFFFFFFFFF5B
:106F8000FFFFFFFFFFFFFFFFFFFFFFFFFFFFFFFF11
:106F9000FFFFFFFF75CD4D9B867982606160616068
:106FA0006168616861686168616861686168616899
:106FB0006168616861686178617861786178617839
:106FC00061786178617861786178617861806180E9
:106FD00061806180618061806180618061806180A9
:106FE0006180619061906190619061906190619029
:106FF0006190619061906198619861986198C3A077
:10700000C7B1AEC3D7E5FFFFFFFFFFFFFFFFFFFFE5
:10701000FFFFFFFFFFFFFFFFFFFFFFFFFFFFFFFF80
:10702000AAC200A800B000B000B000B000B000B02C
:1070300000B000B000B000B000C000C000C000C090
:1070400000C000C000C000C000C000C000C000C838
:1070500000C800C800C800C800C800C800C800C8F0
:1070600000C800D000D800D800D800D800D800D878
:1070700000D800D800D800D800D800E000E000E038
:1070800000E000E000E000E000E000E000E000E8F8
:1070900000F000F000F000F000F000F000F000F070
:1070A00000F000F0003000000000000000000000D0
:1070B00000000000000000000000000000000000D0
:1070C00000000000000000000000000000000000C0
:1070D00000000000000000000000000000000000B0
:1070E0000000000000000000000000080008000888
:1070F0000008000800080008000800080008001048
:1071000000180018001800180018001800180018BF
:10711000001800180020002000200020002000207F
:10712000002000200020002000200030003000302F
:1071300000300030003000300030003000300030CF
